{
  "_format": "hh3-artifact-1",
  "contractName": "TransactionStorage",
  "sourceName": "contracts/TransactionStorage.sol",
  "abi": [
    {
      "anonymous": false,
      "inputs": [
        {
          "indexed": false,
          "internalType": "string",
          "name": "senderName",
          "type": "string"
        },
        {
          "indexed": false,
          "internalType": "string",
          "name": "receiverName",
          "type": "string"
        },
        {
          "indexed": false,
          "internalType": "uint256",
          "name": "amount",
          "type": "uint256"
        }
      ],
      "name": "PaymentSaved",
      "type": "event"
    },
    {
      "inputs": [
        {
          "internalType": "uint256",
          "name": "index",
          "type": "uint256"
        }
      ],
      "name": "getPayment",
      "outputs": [
        {
          "internalType": "string",
          "name": "",
          "type": "string"
        },
        {
          "internalType": "string",
          "name": "",
          "type": "string"
        },
        {
          "internalType": "uint256",
          "name": "",
          "type": "uint256"
        }
      ],
      "stateMutability": "view",
      "type": "function"
    },
    {
      "inputs": [
        {
          "internalType": "uint256",
          "name": "",
          "type": "uint256"
        }
      ],
      "name": "payments",
      "outputs": [
        {
          "internalType": "string",
          "name": "senderName",
          "type": "string"
        },
        {
          "internalType": "string",
          "name": "receiverName",
          "type": "string"
        },
        {
          "internalType": "uint256",
          "name": "amount",
          "type": "uint256"
        }
      ],
      "stateMutability": "view",
      "type": "function"
    },
    {
      "inputs": [
        {
          "internalType": "string",
          "name": "senderName",
          "type": "string"
        },
        {
          "internalType": "string",
          "name": "receiverName",
          "type": "string"
        },
        {
          "internalType": "uint256",
          "name": "amount",
          "type": "uint256"
        }
      ],
      "name": "savePayment",
      "outputs": [],
      "stateMutability": "nonpayable",
      "type": "function"
    },
    {
      "inputs": [],
      "name": "totalPayments",
      "outputs": [
        {
          "internalType": "uint256",
          "name": "",
          "type": "uint256"
        }
      ],
      "stateMutability": "view",
      "type": "function"
    }
  ],
  "bytecode": "0x6080604052348015600e575f5ffd5b50610ade8061001c5f395ff3fe608060405234801561000f575f5ffd5b5060043610610049575f3560e01c80625b44871461004d5780633280a8361461006b57806387d817891461009d578063d83622dd146100cf575b5f5ffd5b6100556100eb565b60405161006291906104e6565b60405180910390f35b61008560048036038101906100809190610531565b6100f6565b604051610094939291906105cc565b60405180910390f35b6100b760048036038101906100b29190610531565b61024a565b6040516100c6939291906105cc565b60405180910390f35b6100e960048036038101906100e49190610670565b61038a565b005b5f5f80549050905090565b6060805f5f5f858154811061010e5761010d610701565b5b905f5260205f2090600302019050805f018160010182600201548280546101349061075b565b80601f01602080910402602001604051908101604052809291908181526020018280546101609061075b565b80156101ab5780601f10610182576101008083540402835291602001916101ab565b820191905f5260205f20905b81548152906001019060200180831161018e57829003601f168201915b505050505092508180546101be9061075b565b80601f01602080910402602001604051908101604052809291908181526020018280546101ea9061075b565b80156102355780601f1061020c57610100808354040283529160200191610235565b820191905f5260205f20905b81548152906001019060200180831161021857829003601f168201915b50505050509150935093509350509193909250565b5f8181548110610258575f80fd5b905f5260205f2090600302015f91509050805f0180546102779061075b565b80601f01602080910402602001604051908101604052809291908181526020018280546102a39061075b565b80156102ee5780601f106102c5576101008083540402835291602001916102ee565b820191905f5260205f20905b8154815290600101906020018083116102d157829003601f168201915b5050505050908060010180546103039061075b565b80601f016020809104026020016040519081016040528092919081815260200182805461032f9061075b565b801561037a5780601f106103515761010080835404028352916020019161037a565b820191905f5260205f20905b81548152906001019060200180831161035d57829003601f168201915b5050505050908060020154905083565b5f604051806060016040528087878080601f0160208091040260200160405190810160405280939291908181526020018383808284375f81840152601f19601f82011690508083019250505050505050815260200185858080601f0160208091040260200160405190810160405280939291908181526020018383808284375f81840152601f19601f82011690508083019250505050505050815260200183815250908060018154018082558091505060019003905f5260205f2090600302015f909190919091505f820151815f0190816104659190610958565b50602082015181600101908161047b9190610958565b506040820151816002015550507f2b1ed7186518c0b2ef59fdf7a7b0f05ed9f907cdb5a57ef8cfe0ed70bd7a663985858585856040516104bf959493929190610a61565b60405180910390a15050505050565b5f819050919050565b6104e0816104ce565b82525050565b5f6020820190506104f95f8301846104d7565b92915050565b5f5ffd5b5f5ffd5b610510816104ce565b811461051a575f5ffd5b50565b5f8135905061052b81610507565b92915050565b5f60208284031215610546576105456104ff565b5b5f6105538482850161051d565b91505092915050565b5f81519050919050565b5f82825260208201905092915050565b8281835e5f83830152505050565b5f601f19601f8301169050919050565b5f61059e8261055c565b6105a88185610566565b93506105b8818560208601610576565b6105c181610584565b840191505092915050565b5f6060820190508181035f8301526105e48186610594565b905081810360208301526105f88185610594565b905061060760408301846104d7565b949350505050565b5f5ffd5b5f5ffd5b5f5ffd5b5f5f83601f8401126106305761062f61060f565b5b8235905067ffffffffffffffff81111561064d5761064c610613565b5b60208301915083600182028301111561066957610668610617565b5b9250929050565b5f5f5f5f5f60608688031215610689576106886104ff565b5b5f86013567ffffffffffffffff8111156106a6576106a5610503565b5b6106b28882890161061b565b9550955050602086013567ffffffffffffffff8111156106d5576106d4610503565b5b6106e18882890161061b565b935093505060406106f48882890161051d565b9150509295509295909350565b7f4e487b71000000000000000000000000000000000000000000000000000000005f52603260045260245ffd5b7f4e487b71000000000000000000000000000000000000000000000000000000005f52602260045260245ffd5b5f600282049050600182168061077257607f821691505b6020821081036107855761078461072e565b5b50919050565b7f4e487b71000000000000000000000000000000000000000000000000000000005f52604160045260245ffd5b5f819050815f5260205f209050919050565b5f6020601f8301049050919050565b5f82821b905092915050565b5f600883026108147fffffffffffffffffffffffffffffffffffffffffffffffffffffffffffffffff826107d9565b61081e86836107d9565b95508019841693508086168417925050509392505050565b5f819050919050565b5f61085961085461084f846104ce565b610836565b6104ce565b9050919050565b5f819050919050565b6108728361083f565b61088661087e82610860565b8484546107e5565b825550505050565b5f5f905090565b61089d61088e565b6108a8818484610869565b505050565b5b818110156108cb576108c05f82610895565b6001810190506108ae565b5050565b601f821115610910576108e1816107b8565b6108ea846107ca565b810160208510156108f9578190505b61090d610905856107ca565b8301826108ad565b50505b505050565b5f82821c905092915050565b5f6109305f1984600802610915565b1980831691505092915050565b5f6109488383610921565b9150826002028217905092915050565b6109618261055c565b67ffffffffffffffff81111561097a5761097961078b565b5b610984825461075b565b61098f8282856108cf565b5f60209050601f8311600181146109c0575f84156109ae578287015190505b6109b8858261093d565b865550610a1f565b601f1984166109ce866107b8565b5f5b828110156109f5578489015182556001820191506020850194506020810190506109d0565b86831015610a125784890151610a0e601f891682610921565b8355505b6001600288020188555050505b505050505050565b828183375f83830152505050565b5f610a408385610566565b9350610a4d838584610a27565b610a5683610584565b840190509392505050565b5f6060820190508181035f830152610a7a818789610a35565b90508181036020830152610a8f818587610a35565b9050610a9e60408301846104d7565b969550505050505056fea2646970667358221220fa17e2998a9ab251a7c3d29f66827132572eede8bf903fc135534bc087affee264736f6c634300081c0033",
  "linkReferences": {},
  "deployedLinkReferences": {},
  "immutableReferences": {},
  "inputSourceName": "project/contracts/TransactionStorage.sol",
  "buildInfoId": "solc-0_8_28-6b7526cd9a86e8ad9428a58a8027a5e8d987ff89"
}